:020000040800F2
:10000000000002208D2900086D0A0008750A00080A
:100010007D0A0008850A00088D0A0008000000001B
:10002000000000000000000000000000950A000829
:10003000A30A000800000000B10A0008BF0A000877
:10004000DD290008DD290008DD290008DD29000878
:10005000DD290008DD290008DD290008DD29000868
:10006000DD290008DD290008DD290008DD29000858
:10007000DD290008DD290008DD290008DD29000848
:10008000DD290008DD290008DD2900080000000046
:10009000000000000000000000000000DD29000852
:1000A000DD290008DD290008DD290008DD29000818
:1000B000DD290008DD290008DD290008CD0A000837
:1000C000DD290008DD290008DD290008DD290008F8
:1000D000DD290008DD290008DD29000800000000F6
:1000E000DD290008DD290008DD29000800000000E6
:1000F000000000000000000000000000DD290008F2
:1001000000000000DD290008DD290008DD290008C5
:1001100000000000000000000000000000000000DF
:10012000DD290008DD290008DD290008DD29000897
:10013000DD290008000000000000000000000000B1
:10014000000000000000000000000000DD290008A1
:10015000DD290008DD290008DD290008DD29000867
:10016000DD290008DD290008000000000000000073
:10017000000000000000000000000000000000007F
:1001800000000000DD290008000000000000000061
:08019000DD290008DD2900084B
:1001980010B5054C237833B9044B13B10448AFF3B9
:1001A80000800123237010BD6800002000000000BB
:1001B800686E000808B5034B1BB103490348AFF349
:1001C800008008BD000000006C000020686E000878
:1001D80053B94AB9002908BF00281CBF4FF0FF31A6
:1001E8004FF0FF3000F088B9ADF1080C6DE904CE8E
:1001F80000F006F8DDF804E0DDE9022304B07047FA
:100208002DE9F047089D0F4604468C46002B48D13F
:100218008A42164661D9B2FA82F34BB1C3F1200281
:1002280001FA03FC20FA02F29E4042EA0C0C9C40C0
:100238004FEA164EB7B2BCFBFEF1220C0EFB11CCF6
:1002480042EA0C4201FB07F0904209D9B21801F1C9
:10025800FF3C80F0EE80904240F2EB80023932445D
:10026800121AA4B2B2FBFEF00EFB102244EA0244BA
:1002780000FB07F7A74209D9341900F1FF3280F0D3
:10028800DA80A74240F2D7803444023840EA01407D
:10029800E41B00211DB1DC400023C5E90043BDE893
:1002A800F0878B4206D90DB1C5E900010021084647
:1002B800BDE8F087B3FA83F1002948D1BB4202D3E5
:1002C800824200F20781841A67EB030201209446F8
:1002D800002DE4D0C5E9004CE1E7002A00F0928047
:1002E800B2FA82F3002B40F0A8808A1A4FEA164E21
:1002F8001FFA86FC0121200CB2FBFEF70EFB172229
:1003080040EA02420CFB07F0904207D9B21807F105
:10031800FF3802D2904200F2E2804746121AA4B295
:10032800B2FBFEF00EFB102244EA02440CFB00FC78
:10033800A44507D9341900F1FF3202D2A44500F2CE
:10034800CB801046A4EB0C0440EA0740A2E7C1F1B9
:1003580020068B4022FA06FC4CEA030C07FA01F44B
:1003680020FA06F3F7404FEA1C49234300FA01F844
:100378001FFA8CFEB7FBF9F01C0C09FB107744EA56
:10038800074400FB0EF7A74202FA01F20AD91CEB58
:10039800040400F1FF3A80F09B80A74240F2988065
:1003A80002386444E41B9FB2B4FBF9F309FB13441D
:1003B80047EA044403FB0EFEA64509D91CEB0404D6
:1003C80003F1FF3780F08280A6457FD9023B644461
:1003D80043EA0040A4EB0E04A0FB02E7BC427346CC
:1003E800B94663D360D05DB1B8EB030264EB09048E
:1003F80004FA06F622FA01F31E43CC40C5E900646C
:1004080000214CE76208480842EAC1710B0C43EA34
:1004180000438AB242EA0342B3FBF6F1E407B4466A
:100428003746B6461F23B0FBF6F0D21B41EA00411F
:1004380061E7614614E7104628E7C3F1200120FA76
:1004480001F29E4027FA01F19F403A434FEA164EC7
:100458001FFA86FCB1FBFEF70EFB1710110C41EAE0
:10046800004107FB0CF8884504FA03F43AD97118DF
:1004780007F1FF3001D288451FD8A1EB0801B1FB75
:10048800FEF808FB0CF70EFB181192B242EA014283
:10049800BA422FD2B21808F1FF31C6D2BA42C4D23A
:1004A800A8F102013244C0E7F0459CD2BEEB02033A
:1004B80067EB0C070138B94695E7A6EB08084144F5
:1004C800B81EB1FBFEF808FB0CF7DCE73B467FE7FC
:1004D800504667E70846FBE63444023832E7023FF5
:1004E80032441BE7A1EB08013846B1FBFEF808FBD4
:1004F8000CF7C8E7414698E7704700BF80B485B05D
:1005080000AF0023FB60174B1B6B164A43F0040334
:100518001363144B1B6B03F00403FB60FB6800239D
:10052800BB60104B1B6B0F4A43F0800313630D4BEA
:100538001B6B03F08003BB60BB6800237B60094B27
:100548001B6B084A43F002031363064B1B6B03F053
:1005580002037B607B6800BF1437BD465DF8047BEF
:10056800704700BF0038024080B500AF124B134AF5
:100578001A60114B124A5A600F4B00229A600E4BB8
:100588001422DA600C4B4FF480421A610A4B0022A5
:100598005A61094B00229A61074B4022DA61064BE7
:1005A80000221A62044802F08DFD0346002B01D098
:1005B80000F078F900BF80BD84000020005400409E
:1005C800801A060080B58AB000AF786007F114037E
:1005D80000221A605A609A60DA601A617B681B68A8
:1005E8001D4A934234D100233B611C4B1B6B1B4AB1
:1005F80043F002031363194B1B6B03F002033B61C7
:100608003B694FF440737B611223BB610023FB619C
:1006180003233B6204237B6207F114031946104845
:1006280002F0B2FB0023FB600C4B1B6C0B4A43F43B
:1006380000131364094B1B6C03F40013FB60FB6885
:10064800002200211F2002F038FB1F2002F051FB7E
:1006580000BF2837BD4680BD005400400038024026
:100668000004024080B500AF02F0B6F900F07CF853
:10067800FFF744FFFFF778FF344B354A5A60334B96
:1006880052221A8000220121324802F001FD002284
:100698001021304802F0FCFC0A2002F00FFA012277
:1006A80001212C4802F0F4FC0A2002F007FA01228A
:1006B8001021284802F0ECFC642002F0FFF92649DA
:1006C800224800F069FE03461A46244B1A70224B52
:1006D8001B78002B04D1224806F028F800BFFDE75C
:1006E800204806F023F8194800F0A0FE03461A46F1
:1006F8001A4B1A704021154801F0A1FE03461A460C
:10070800164B1B781343DAB2144B1A7005210F48A5
:1007180001F069FF03461A46104B1B781343DAB2FF
:100728000E4B1A700121094801F07EFF03461A4654
:100738000A4B1B781343DAB2084B1A70034801F0CE
:100748009DFA024800F06EF8FBE700BFD8000020D1
:100758008400002000040240D2100020D0100020A5
:10076800806E0008A86E000880B594B000AF07F14D
:10077800200330220021184606F0B6F807F10C03D2
:1007880000221A605A609A60DA601A610023BB601E
:10079800224B1B6C214A43F0805313641F4B1B6C84
:1007A80003F08053BB60BB6800237B601C4B1B6855
:1007B8001B4A43F440431360194B1B6803F440433E
:1007C8007B607B6802233B620123FB6210233B634F
:1007D8000023BB6307F12003184605F00BFA034614
:1007E800002B01D000F05EF80F23FB6000233B6173
:1007F80000237B610023BB610023FB6107F10C032D
:100808000021184605F06EFC0346002B01D000F0CD
:1008180049F800BF5037BD4680BD00BF00380240D0
:100828000070004080B586B002AF7860164917485E
:1008380001F09EFB03461A46154B1A70124B1B78A3
:10084800002B1AD01349786801F0D4FD03461A46E4
:100858000F4B1A701049786801F0DAFB03461A4604
:100868000B4B1A706423009380230C4A20210C48F8
:1008780002F082FD0346FB7302E0052002F01EF938
:1008880000BF1037BD4680BDD3100020D80000201F
:10089800D0100020D1100020800B0020440F002031
:1008A8008400002080B400AF72B600BF00BFFDE72F
:1008B80080B588B004AFF8600B467A607B81FB682E
:1008C8005868FB6819887A89642302930123019385
:1008D8007B680093102302F047FF03461846103741
:1008E800BD4680BD80B586B004AF78600B467B807E
:1008F80013467B707B6858687B6819887A886423FC
:100908000293012301937B1C0093102302F032FE13
:10091800034618460837BD4680BD90B589B004AF78
:10092800F8607A603B600B467B81FB685868FB681F
:1009380019883B689BB27A894FF47A7402940193C0
:100948007B680093102302F015FE034618461437FF
:10095800BD4690BD90B589B004AFF8607A603B6041
:100968000B467B81FB685868FB6819883B689BB21B
:100978007A894FF47A74029401937B680093102368
:1009880002F0F2FE034618461437BD4690BD80B407
:1009980085B000AF78600B467B800023FB6021E0C8
:1009A8007A68FB6813441B781A06FB680133796878
:1009B8000B441B781B041A43FB68023379680B4409
:1009C8001B781B021343FA68033279680A441278C9
:1009D8001343BB607A68FB681344BA681A60FB6803
:1009E8000433FB607B88FA689A42D9D300BF00BF02
:1009F8001437BD465DF8047B704780B582B000AF00
:100A080078603960386802F059F8002318460837CA
:100A1800BD4680BD80B483B000AF00237B60104B1F
:100A28005B6C0F4A43F4804353640D4B5B6C03F4D7
:100A380080437B607B6800233B60094B1B6C084A42
:100A480043F080531364064B1B6C03F080533B60E8
:100A58003B6800BF0C37BD465DF8047B704700BF9C
:100A68000038024080B400AF00BFFDE780B400AF9B
:100A780000BFFDE780B400AF00BFFDE780B400AF62
:100A880000BFFDE780B400AF00BFFDE780B400AF52
:100A980000BFBD465DF8047B704780B400AF00BF5F
:100AA800BD465DF8047B704780B400AF00BFBD460B
:100AB8005DF8047B704780B500AF01F0DFFF00BF31
:100AC80080BD000080B500AF024803F07FF800BF8A
:100AD80080BD00BF8400002080B586B000AFF860FC
:100AE800B9607A6000237B610AE0AFF300800146B9
:100AF800BB685A1CBA60CAB21A707B6901337B6141
:100B08007A697B689A42F0DB7B6818461837BD46DD
:100B180080BD80B586B000AFF860B9607A60002308
:100B28007B6109E0BB685A1CBA601B781846AFF3B2
:100B380000807B6901337B617A697B689A42F1DBCB
:100B48007B6818461837BD4680BD80B483B000AFB7
:100B580078604FF0FF3318460C37BD465DF8047BCC
:100B6800704780B483B000AF786039603B684FF459
:100B780000525A60002318460C37BD465DF8047BC6
:100B8800704780B483B000AF7860012318460C37F3
:100B9800BD465DF8047B704780B485B000AFF8604F
:100BA800B9607A60002318461437BD465DF8047BA7
:100BB8007047000080B586B000AF7860144A154BC6
:100BC800D31A7B617B693B61134B1B68002B02D1F5
:100BD800114B124A1A60104B1A687B6813443A6921
:100BE8009A4207D205F0CEFE03460C221A604FF057
:100BF800FF3309E0084B1B68FB60074B1A687B68EA
:100C08001344054A1360FB6818461837BD4680BD73
:100C18000000022000040000D41000202812002048
:100C280080B400AF064BD3F88830054A43F470030C
:100C3800C2F8883000BFBD465DF8047B704700BF2E
:100C480000ED00E080B584B000AF7860084611463A
:100C58001A460346FB700B46BB7013463B800023C5
:100C6800FB730023BB7378687B6803F5A162FB788C
:100C78003988FFF76FFE03461A46FB7B1343FB7365
:100C88007B680A211846FFF7B8FE03461A46FB7B25
:100C98001343FB73BB7BC72B04D9FB7B43F00103D6
:100CA800FB730FE0FB78032B09D97B6893F80A35AF
:100CB8007E2B04D9FB7B43F04203FB7302E0BB7B32
:100CC8000133BB73BB787A68134493F808253B7EDD
:100CD8001340DBB23A7F9A42C5D1FB7B18461037E6
:100CE800BD4680BD80B584B000AF78600023FB733B
:100CF8000023BB817B6807F10B0206211846FFF72A
:100D0800D7FD03461A46FB7B1343FB73FB7A5BB2A2
:100D1800002B10DA7B6807F10A0207211846FFF753
:100D2800C7FD03461A46FB7B1343FB73BA7AFB7B6A
:100D38001343FB7312E07B6801211846FFF75DFE41
:100D4800BB890133BB81FB7A03F00103002B04D17B
:100D5800BB89B3F5FA7FCDD300E000BFFB7B184613
:100D68001037BD4680BD000080B5EAB002AF07F578
:100D7800D073A3F5CE7318600A4607F5D073A3F2B3
:100D88009D131A70002387F89B3107F5D073A3F5DC
:100D9800C873D94A92E8030083E8030007F5D073C3
:100DA800A3F5CC73D54A92E8030083E8030007F55E
:100DB800D073A3F5CE731B6803F5A16007F5D07354
:100DC800A3F5CE731B6818334FF4F472194605F077
:100DD80006FE07F5D073A3F29D131B78102B40F085
:100DE800228107F5D073A3F5CE731B6803F5A362C0
:100DF80007F5D073A3F5C87303CB1060516007F5EE
:100E0800D073A3F5CE731B6803F5A1634FF4F47197
:100E18001846FFF7BCFD07F5D073A3F5CE731B6822
:100E280003F2445107F198034FF48072184605F015
:100E3800D6FD07F5D073A3F5CE731B6803F5C9611A
:100E480007F118038022184605F0C9FD002387F82A
:100E58009E31ACE0002387F89F319CE097F99F21F1
:100E680097F99E31DB0013445A0007F5D073A3F5B8
:100E7800847353F8222097F99F1197F99E31DB006C
:100E88000B445B00591C07F5D073A3F5847353F822
:100E980021301A4497F99F1197F99E31DB000B44D2
:100EA8000433590007F5D073A3F5847353F8213040
:100EB8001A4497F99F1197F99E31DB000B445B00A8
:100EC80003F1090107F5D073A3F5847353F82130B2
:100ED800134497F99F1197F99E2192000A449908A3
:100EE80007F5D073A3F5847343F8221097F99F216F
:100EF80097F99E31DB0013445A0007F5D073A3F528
:100F0800C47333F91230194697F99F2197F99E3126
:100F1800DB0013445B005A1C07F5D073A3F5C473B8
:100F280033F912300B4497F99F1197F99E21D2009B
:100F38000A440432510007F5D072A2F5C47232F99E
:100F48001120134497F99F1197F99E21D2000A4462
:100F5800520002F1090107F5D072A2F5C47232F904
:100F680011201344002B00DA03339B10194697F91C
:100F78009F2197F99E319B001A4409B207F5D07357
:100F8800A3F5C47323F8121097F99F31DBB201332C
:100F9800DBB287F89F3197F99F31032B7FF75EAF5C
:100FA80097F99E31DBB20133DBB287F89E3197F9AE
:100FB8009E31032B7FF74EAF07F1180320336022D1
:100FC8000021184605F090FC07F198034033C02231
:100FD8000021184605F088FC07F5D073A3F5CE73F9
:100FE8001B6803F2445307F198014FF480721846C6
:100FF80005F0F5FC07F5D073A3F5CE731B6803F570
:10100800C96307F118018022184605F0E8FC07F5C6
:10101800D073A3F5CE731B6803F5A1634FF4F47185
:101028001846FFF7B4FC0023A7F89C311BE0B7F87B
:101038009C3103F10802B7F89C3107F5D071A1F58E
:10104800CE7109680A4492F8081507F5D072A2F51E
:10105800CE72126813440A4683F80825B7F89C3103
:101068000133A7F89C31B7F89C31B3F5F27FDED392
:1010780007F5D073A3F5CE731B6803F5DD6207F59A
:10108800D073A3F5CC7303CB1060516007F5D07310
:10109800A3F5CE73186807F5D073A3F5CE731B6854
:1010A80003F5A1624FF4F47342F61861FFF735FCBB
:1010B80003461A4697F89B31134387F89B3107F587
:1010C800D073A3F5CE7003230193FF2300934FF44D
:1010D8003053012204210068FFF7B4FD03461A4685
:1010E80097F89B31134387F89B3197F89B31184643
:1010F80007F5D077BD4680BDCC6E0008D46E0008D9
:1011080080B5CAB002AF07F59073A3F58E73186067
:101118000A4607F59073A3F21D131A70002387F887
:101128001D319A4A07F58A7392E8030083E80300A1
:10113800974A07F5867392E8030083E80300954B06
:10114800C7F8083107F59073A3F58E731B6803F58C
:10115800A16007F59073A3F58E731B6803F5007300
:101168004FF44272194605F03AFC07F59073A3F262
:101178001D131B78102B40F0D28007F59073A3F550
:101188008E731B6803F5A2631A4607F58A7303CBAF
:101198001060516007F59073A3F58E731B6803F513
:1011A800A5631A4607F5867303CB1060516007F5EF
:1011B8009073A3F58E731B6803F5A1634FF4427116
:1011C8001846FFF7E4FB07F59073A3F58E731B68C9
:1011D80003F23C5107F108034FF48072184605F0FA
:1011E800FEFB002387F81E315DE0002387F81F31DE
:1011F8004EE097F91F2197F91E31DB0013445A007E
:1012080007F59073A3F58C7353F8222097F91F11F3
:1012180097F91E31DB000B445B00591C07F59073EE
:10122800A3F58C7353F821301A4497F91F1197F9D5
:101238001E31DB000B440433590007F59073A3F506
:101248008C7353F821301A4497F91F1197F91E31FE
:10125800DB000B445B0003F1090107F59073A3F56C
:101268008C7353F82130134497F91F1197F91E21F5
:1012780092000A44990807F59073A3F58C7343F814
:10128800221097F91F31DBB20133DBB287F81F3127
:1012980097F91F31032BACDD97F91E31DBB201330F
:1012A800DBB287F81E3197F91E31032B9DDD07F15C
:1012B80008034033C0220021184605F015FB07F546
:1012C8009073A3F58E731B6803F23C5307F1080172
:1012D8004FF48072184605F082FB07F59073A3F56A
:1012E8008E731B6803F5A1634FF442711846FFF72C
:1012F8004EFB07F59073A3F58E731B6803F23C63EE
:10130800D7F808211A6007F59073A3F58E731B6848
:1013180003F5B06304220021184605F0E5FA07F545
:101328009073A3F58E73186807F59073A3F58E7301
:101338001B6803F5A1624FF4427342F6F841FFF7C8
:10134800ECFA03461A4697F81D31134387F81D3106
:1013580007F59073A3F58E7003230193FF23009381
:101368004FF43053012204210068FFF76BFC034659
:101378001A4697F81D31134387F81D3197F81D3128
:10138800184607F59077BD4680BD00BFDC6E0008A3
:10139800E46E0008A0FC010080B584B000AF78605E
:1013A80039600023FB737B68002247F6FF711846FB
:1013B800FFF798FA03461A46FB7B1343FB737B68D7
:1013C80007F10E0200211846FFF772FA03461A4683
:1013D800FB7B1343FB737B6807F10D020121184661
:1013E800FFF766FA03461A46FB7B1343FB737B68D9
:1013F800022247F6FF711846FFF774FA03461A46A9
:10140800FB7B1343FB73BB7BF02B06D17B7B022B4F
:1014180003D13B6801221A7002E03B6800221A706F
:10142800FB7B18461037BD4680BD000080B588B0EC
:1014380002AF78600023FB754FF001133B61012375
:10144800FB607B68E54A5A617B68E54A1A617B68FC
:10145800002247F6FF711846FFF744FA03461A467A
:10146800FB7D1343FB757B68042209211846FFF7AF
:1014780039FA03461A46FB7D1343FB757B68402205
:101488000F211846FFF72EFA03461A46FB7D134331
:10149800FB757B6803220A211846FFF723FA0346E7
:1014A8001A46FB7D1343FB757B6807F1160247F666
:1014B800FF711846FFF7FCF903461A46FB7D1343F4
:1014C800FB757B6801220C211846FFF70BFA0346CF
:1014D8001A46FB7D1343FB757B68002240F201111D
:1014E8001846FFF7FFF903461A46FB7D1343FB75C1
:1014F8007B6800224FF481711846FFF7F3F9034621
:101508001A46FB7D1343FB757B6801224FF48571F6
:101518001846FFF7E7F903461A46FB7D1343FB75A8
:101528007B68012244F202011846FFF7DBF9034603
:101538001A46FB7D1343FB757B68002244F20201C7
:101548001846FFF7CFF903461A46FB7D1343FB7590
:101558007B6803224FF485711846FFF7C3F90346E9
:101568001A46FB7D1343FB757B68012240F2031189
:101578001846FFF7B7F903461A46FB7D1343FB7578
:101588007B6800220C211846FFF7ACF903461A467F
:10159800FB7D1343FB757B6843220F211846FFF739
:1015A800A1F903461A46FB7D1343FB757B680121AD
:1015B8001846FFF722FA03461A46FB7D1343FB75CC
:1015C8007B6840220F211846FFF78CF903461A461C
:1015D800FB7D1343FB757B6801220A211846FFF740
:1015E80081F903461A46FB7D1343FB757B6864212A
:1015F8001846FFF702FA03461A46FB7D1343FB75AC
:101608007B68002247F6FF711846FFF76BF903461F
:101618001A46FB7D1343FB7501230193FF230093B7
:101628000623002201217868FFF70CFB03461A46BF
:10163800FB7D1343FB757B6801220E211846FFF7DB
:1016480051F903461A46FB7D1343FB757B6802225A
:1016580047F6FF711846FFF745F903461A46FB7D22
:101668001343FB757B680D2203211846FFF73AF9EF
:1016780003461A46FB7D1343FB757B68012247F638
:10168800FF711846FFF72EF903461A46FB7D1343F0
:10169800FB751023019310230093212300220121BD
:1016A8007868FFF7CFFA03461A46FB7D1343FB75AC
:1016B8007B68002247F6FF711846FFF713F90346C7
:1016C8001A46FB7D1343FB757B6807F1160247F644
:1016D800FF711846FFF7ECF803461A46FB7D1344E2
:1016E800FB757B6801220C211846FFF7FBF80346BF
:1016F8001A46FB7D1343FB757B68002247F6FF7192
:101708001846FFF7EFF803461A46FB7D1343FB75AF
:101718007B68002240F201111846FFF7E3F8034600
:101728001A46FB7D1343FB757B6800224FF48171D9
:101738001846FFF7D7F803461A46FB7D1343FB7597
:101748007B6801224FF485711846FFF7CBF80346F2
:101758001A46FB7D1343FB757B68012244F20201A4
:101768001846FFF7BFF803461A46FB7D1343FB757F
:101778007B68002244F202011846FFF7B3F80346DB
:101788001A46FB7D1343FB757B6803224FF4857172
:101798001846FFF7A7F803461A46FB7D1343FB7567
:1017A8007B68012240F203111846FFF79BF80346B5
:1017B8001A46FB7D1343FB757B68002244F20F0138
:1017C8001846FFF78FF803461A46FB7D1343FB754F
:1017D8007B68432240F21A21184603E01CC3010823
:1017E80050BF0108FFF77EF803461A46FB7D1343F6
:1017F800FB757B68032240F21A211846FFF772F83E
:1018080003461A46FB7D1343FB757B68012240F2B1
:101818001A211846FFF766F803461A46FB7D13435C
:10182800FB757B68002240F21A211846FFF75AF828
:1018380003461A46FB7D1343FB757B68002240F282
:1018480019211846FFF74EF803461A46FB7D134345
:10185800FB757B68002240F21B211846FFF742F80F
:1018680003461A46FB7D1343FB757B68002247F647
:10187800FF711846FFF736F803461A46FB7D1343F7
:10188800FB757B6807F1160247F6FF711846FFF7EC
:101898000FF803461A46FB7D1344FB757B6800224C
:1018A8000C211846FFF71EF803461A46FB7D134322
:1018B800FB757B68012247F6FF711846FFF712F89F
:1018C80003461A46FB7D1343FB757B6807222021DC
:1018D8001846FFF707F803461A46FB7D1343FB75C6
:1018E8007B68062220211846FEF7FCFF03461A46AD
:1018F800FB7D1343FB757B68092247F6FF71184689
:10190800FEF7F0FF03461A46FB7D1343FB75786824
:101918004FF40043D44A0021FEF7FFFF03461A465E
:10192800FB7D1343FB757B680A2247F6FF71184657
:10193800FEF7D8FF03461A46FB7D1343FB7578680C
:101948004FF40043C94A0021FEF7E7FF03461A4651
:10195800FB7D1343FB757B680B2247F6FF71184626
:10196800FEF7C0FF03461A46FB7D1343FB757868F4
:101978004FF4A043BE4A0021FEF7CFFF03461A46A4
:10198800FB7D1343FB757B68012247F6FF71184600
:10199800FEF7A8FF03461A46FB7D1343FB757B68D9
:1019A800022247F6FF711846FEF79CFF03461A46C7
:1019B800FB7D1343FB757B680D2203211846FEF758
:1019C80091FF03461A46FB7D1343FB757B68012292
:1019D80047F6FF711846FEF785FF03461A46FB7D5A
:1019E8001343FB7510230193102300932123002236
:1019F80001217868FFF726F903461A46FB7D134351
:101A0800FB757B68002247F6FF711846FEF76AFFF0
:101A180003461A46FB7D1343FB757B6807F11602E4
:101A280047F6FF711846FEF743FF03461A46FB7D4B
:101A38001344FB757B6801220C211846FEF752FF00
:101A480003461A46FB7D1343FB757B68002247F665
:101A5800FF711846FEF746FF03461A46FB7D1343FF
:101A6800FB757B6800224FF48A711846FEF73AFF2F
:101A780003461A46FB7D1343FB757B68002240F240
:101A880015111846FEF72EFF03461A46FB7D134331
:101A9800FB757B6842224FF48B711846FEF722FFD4
:101AA80003461A46FB7D1343FB757B68002240F210
:101AB80017111846FEF716FF03461A46FB7D134317
:101AC800FB757B6800220B211846FEF70BFF0346C7
:101AD8001A46FB7D1343FB757B6807F1160247F630
:101AE800FF711846FEF7E4FE03461A46FB7D1344D1
:101AF800FB757B6800220C211846FEF7F3FE0346AF
:101B08001A46FB7D1343FB757B6801220B2118469F
:101B1800FEF7E8FE03461A46FB7D1343FB7578681B
:101B2800FFF7E0F803461A46FB7D1343FB757B6815
:101B3800022247F6FF711846FEF7D4FE03461A46FE
:101B4800FB7D1343FB75786828234A4A42F6D8710F
:101B5800FEF7E3FE03461A46FB7D1343FB7502239B
:101B68000193FF2300934FF4305300220421786837
:101B7800FFF768F803461A46FB7D1343FB75786840
:101B88007B6803F5A1624FF4F67342F60441FEF751
:101B9800E1FE03461A46FB7D1343FB757B6803F1A0
:101BA80018007B6803F5A1634FF4F472194604F03A
:101BB80016FF10217868FFF7D7F803461A46FB7D11
:101BC8001343FB757B6803F500732B4A18461146CF
:101BD8004FF442731A4604F002FF10217868FFF7A9
:101BE8008FFA03461A46FB7D1343FB7578687B68BA
:101BF8001A694FF4737342F63441FEF78EFE0346BA
:101C08001A46FB7D1343FB7503230193FF230093BF
:101C18004FF43053012204217868FFF713F8034684
:101C28001A46FB7D1343FB7507F1100104234CF69C
:101C38007872786800F0DAFD03461A46FB7D134394
:101C4800FB7507F10C0104234CF65C52786800F030
:101C5800CDFD03461A46FB7D1343FB75FB7D1846F5
:101C68001837BD4680BD00BF506F000850EF000810
:101C7800506F010824C601081CC30108B0B59CB008
:101C880002AF7860002387F8673000233B650023A4
:101C98007B654FF44073FB6407F15B031946786872
:101CA80000F0A8FB03461A4697F86730134387F8F5
:101CB80067307B680022DA607B68FF221A72AA4BC1
:101CC80007F13C040FCB84E80F00A84B07F10C0484
:101CD8001D460FCD0FC40FCD0FC495E80F0084E843
:101CE8000F00FB6B0833FB63FB6B1033FB63FB6B71
:101CF8002033FB63FB6B4033FB63FB6B8033FB637D
:101D0800FB6B03F58073FB63FB6B03F50073FB63ED
:101D1800FB6B03F58063FB63FB6B03F50063FB63FD
:101D280000233B6673E03B6E9B0068333B4453F8EB
:101D38005C3C002B67D03B6E5B099B0068333B44DF
:101D480053F82C2C3B6E03F01F0322FA03F303F025
:101D58000103002B57D007F10C023B6E9B00134484
:101D6800FB65FB6D1B7803F00F03DBB2002B3AD049
:101D7800FB6D1B78C3F30303DBB20C2B33D8FB6D6D
:101D88005B8845F2CF42934210D9FB6D5B8845F6DC
:101D98008F0293420AD897F85B30C3F30B0399B2CA
:101DA800FA6D138861F30F13138009E097F85B301D
:101DB800C3F30B0399B2FA6D138861F30F13138001
:101DC8007B68DB68FA6D1278C2F30302D2B211465F
:101DD800FA6D1288C2F30B1292B201FB02F21A4496
:101DE8007B68DA6009E07B68DB68FA6D1288C2F309
:101DF8000B1292B21A447B68DA607B68DB681A1DA2
:101E08007B68DA6000E000BF3B6E01333B663B6EE7
:101E18000B2B88D97B68DB6803F114027B68DA60D6
:101E280007F10C0130234CF67852786800F0DEFC9C
:101E380003461A4697F86730134387F867307B687C
:101E4800DB683B653B6E01337B6507F15001082376
:101E58004CF66052786800F0C9FC03461A4697F8B9
:101E68006730134387F8673007F13C0110234CF6BD
:101E78006852786800F0BAFC03461A4697F867304B
:101E8800134387F867307B68002247F6FF711846CE
:101E9800FEF728FD03461A4697F86730134387F87C
:101EA80067307B68052209211846FEF71BFD0346AB
:101EB8001A4697F86730134387F867307B68022221
:101EC80047F6FF711846FEF70DFD03461A4697F8C8
:101ED8006730134387F86730786807F14C020423AA
:101EE80042F6FC71FEF719FD03461A4697F867306B
:101EF800134387F8673003230193FF2300934FF4BC
:101F08003053012204217868FEF79CFE03461A46E6
:101F180097F86730134387F867307B6803F5A1614A
:101F28000C2345F24042786800F0D6FB03461A4677
:101F380097F86730134487F867307B6803F5A26326
:101F48001B889BB2A7F85830B7F858301A467B68F8
:101F5800DB689A4202D0FF2387F8673097F867302A
:101F680018466837BD46B0BDEC6E0008FC6E000828
:101F780080B584B000AF786039600023FB7378685F
:101F88007B6803F5A16204230021FEF7E3FC034606
:101F98001A46FB7B1343FB737B6893F808257B6821
:101FA8001B7A9A4220D07B6893F80835FF2B1BD008
:101FB8007B6893F80935052B16D17B6893F80A35A9
:101FC80003F00503052B0FD17B6893F80B3503F05D
:101FD8001003002B08D03B6801221A707B6893F825
:101FE80008257B681A720EE07B6893F80B355BB2A4
:101FF800002B05DA7B6893F80A25FB7B1343FB73F8
:102008003B6800221A70FB7B18461037BD4680BD1E
:1020180080B588B000AF786039600023FB747868B9
:102028007B6803F5A1627B68DB680021FEF792FC00
:1020380003461A46FB7C1343FB747B6893F8082518
:102048007B681A727B6803F5A1627B68DB689BB2C8
:1020580019461046FEF79BFC1023FB610EE1FB6955
:1020680003F5A1637A681344FB60FB681B78C3F32C
:102078000303DBB2012B15D9FB681B78C3F30303F9
:10208800DBB20C2B0ED8FB681B78C3F30303DBB25F
:102098001A46FB681B88C3F30B139BB202FB03F3BE
:1020A8007B6105E0FB681B88C3F30B139BB27B6164
:1020B800FB685B884DF27C42934200F0BB804DF296
:1020C8007C42934200F3D2804DF23C42934200F0AE
:1020D800A3804DF23C42934200F3C8804DF23C325B
:1020E800934200F08B804DF23C32934200F3BE8065
:1020F8004DF2BC22934273D04DF2BC22934200F3BE
:10210800B5804CF6BC7293425CD04CF6BC729342DC
:1021180000F3AC804CF67C72934245D04CF67C724E
:10212800934200F3A3804CF65042934200F0908013
:102138004CF65042934200F3998045F2D0529342B4
:1021480024D045F2D052934200F3908045F2B44235
:10215800934204D045F2D04293420AD086E0FB690C
:102168000C337A68134493F808355AB23B681A70EE
:102178007DE03B68181DFB69043303F5A1637A68A9
:1021880013447A69194604F02AFC70E03B6803F5A9
:10219800A270FB69043303F5A1637A6813447A6972
:1021A800194604F01CFC62E03B6803F58270FB6989
:1021B800043303F5A1637A6813447A69194604F075
:1021C8000EFC54E03B6803F51170FB69043303F51A
:1021D800A1637A6813447A69194604F000FC46E062
:1021E8003B6803F55170FB69043303F5A1637A6812
:1021F80013447A69194604F0F2FB38E03B6803F5AA
:102208007170FB69043303F5A1637A6813447A6932
:10221800194604F0E4FB2AE03B6803F24440FB69FA
:10222800043303F5A1637A6813447A69194604F004
:10223800D6FB1CE03B6803F28440FB69043303F5DA
:10224800A1637A6813447A69194604F0C8FB0EE062
:102258003B6803F2C440FB69043303F5A1637A6861
:1022680013447A69194604F0BAFB00E000BFFA6922
:102278007B691344FB61FB690433FB617B68DB68A2
:10228800FA699A42FFF4EBAE0023FB610DE03A686D
:10229800FB699B0013445B68DA0A3968FB699B0099
:1022A8000B445A60FB690133FB61FB693F2BEED994
:1022B8000023FB6156E03A68FB6903F5F0735B00A5
:1022C8001344B3F90430002B00DA03339B1019B21E
:1022D8003A68FB6903F5F0735B0013440A469A8079
:1022E8003A68FB6903F5F0735B001344B3F90430F3
:1022F800002B07DA3A68FB6903F5F0735B001344B7
:1023080000229A803A68FB69134403F244431B781D
:102318005B08D9B23A68FB69134403F244430A469E
:102328001A703A68FB6903F5D0735B0013449B8805
:10233800DB0999B23A68FB6903F5D0735B00134473
:102348000A469A803A68FB6990339B0013445B689D
:10235800DA0A3968FB6990339B000B445A60FB69C1
:102368000133FB61FB693F2BA5D90023FB611BE00F
:102378003A68FB69134403F582731B78002B10D16C
:102388000023BB610AE0FA69BB6913443A68134445
:10239800FF2283F88424BB690133BB61BB69002B2E
:1023A800F1D0FB690133FB61FB693F2BE0D90023C6
:1023B800FB6114E03A68FB6903F599739B001344C9
:1023C8009B680B4AA2FB0323DA0B3968FB6903F508
:1023D80099739B000B449A60FB690133FB61FB69AD
:1023E8001F2BE7D9FB7C18462037BD4680BD00BFB0
:1023F8000180008080B584B000AF78603960002328
:10240800FB737B6803F5A161082345F250427868A5
:1024180000F062F903461A46FB7B1343FB737B68A3
:1024280093F808257B6893F8093512FB03F3DAB2B1
:102438003B681A70FB7B18461037BD4680BD80B5D7
:1024480084B000AF78600B46FB700023FB73FB7809
:10245800102B02D0402B55D0A9E07B6803F5A16171
:1024680010234AF63852786800F036F903461A46BF
:10247800FB7B1343FB737B68402283F80C257B6846
:10248800402283F80E257B68042283F811257B6897
:1024980003F5A16110234AF63852786800F0A6F9CE
:1024A80003461A46FB7B1343FB737B6803F5A16164
:1024B800082345F25042786800F00EF903461A46A0
:1024C800FB7B1343FB737B68042283F808257B6836
:1024D800042283F809257B68082283F80C257B6889
:1024E800082283F80D257B6803F5A161082345F2CE
:1024F8005042786800F07AF903461A46FB7B13438A
:10250800FB7357E07B6803F5A16110234AF6385244
:10251800786800F0E1F803461A46FB7B1343FB7327
:102528007B68102283F80C257B68102283F80E251F
:102538007B68012283F811257B6803F5A1611023CC
:102548004AF63852786800F051F903461A46FB7B80
:102558001343FB737B6803F5A161082345F25042DE
:10256800786800F0B9F803461A46FB7B1343FB73FF
:102578007B68082283F808257B68082283F80925E8
:102588007B68042283F80C257B68042283F80D25D8
:102598007B6803F5A161082345F25042786800F092
:1025A80025F903461A46FB7B1343FB7302E07F239E
:1025B800FB7300BFFB7819467868FEF7D5FB034626
:1025C8001A46FB7B1343FB73FB7819467868FEF7C2
:1025D80097FD03461A46FB7B1343FB73FB7B1846A8
:1025E8001037BD4680BD80B588B004AF78600B4613
:1025F800FB700023FB737B6803F5A1610123029341
:1026080001230193FB1C0093042345F25842786888
:1026180000F08BF903461A46FB7B1343FB73FB7BE5
:1026280018461037BD4680BD80B584B000AF7860CD
:102638000B46FB700023FB730023BB607B6803F52C
:10264800A16108234AF63052786800F045F803463D
:102658001A46FB7B1343FB73FB78012B02D0032B39
:102668000BD015E07B68012283F809257B680322DB
:1026780083F80B250023BB600DE07B68032283F8F9
:1026880009257B68022283F80B250123BB6002E041
:102698007F23FB7300BF7B6803F5A16108234AF61B
:1026A8003052786800F0A2F803461A46FB7B1343C1
:1026B800FB7307F1080104234CF65C52786800F0BC
:1026C80095F803461A46FB7B1343FB73FB7B1846BE
:1026D8001037BD4680BD000080B58CB002AFF860F1
:1026E800B9607A607B80002387F825307B880C33BB
:1026F8003B623D4A07F1140307CA83E807007B8859
:1027080040F29452934203D9FF2387F8253065E0BD
:102718007B681B0ADBB23B757B68DBB27B757B8809
:102728001B11DBB2BB757B88DBB21B01DBB2FB750F
:10273800F86807F114020C2342F6F471FEF7EDF87D
:1027480003461A4697F82530134387F825300323A4
:102758000193FF2300934FF4305301220421F868BA
:10276800FEF770FA03461A4697F82530134387F8A0
:102778002530F868FB6803F5A1623B6A42F604411C
:10278800FEF7E8F803461A4697F82530134387F80A
:102798002530FB6803F5A1627B880C339BB2194690
:1027A8001046FEF7F4F80023FB8411E0B7F9263051
:1027B8001A1DB7F92630B9680B44F9680A4492F82B
:1027C80008251A70B7F926309BB201339BB2FB84F7
:1027D800B7F90230B7F926209A42E7DB97F8253097
:1027E80018462837BD4680BD2C6F000880B58CB0D0
:1027F80002AFF860B9607A607B80002387F82730E1
:102808000023FB6100233B7500237B750023BB7508
:102818000F23FB7505233B7601237B767B880833E2
:102828001B12DBB2BB767B88DBB20833DBB2FB76EC
:102838007B88C3F53F5334337B847B8840F29452C2
:10284800934203D9FF2387F8273068E07B681B0A87
:10285800DBB23B777B68DBB27B777B881B11DBB213
:10286800BB777B88DBB21B01DBB2FB777B88194621
:10287800B868FEF78CF87B88013B9BB2BB8412E0FA
:10288800B7F92430BA681A44B7F9243004331178F8
:10289800FA6813440A4683F80825B7F924309BB22E
:1028A800013B9BB2BB84B7F92430002BE8DAFB6804
:1028B80003F5A163FA691A607B88043303F5A16301
:1028C800FA6813441A4607F1140303CB10605160E9
:1028D800F868FB6803F5A1627B880C33798CFEF7F6
:1028E8001CF803461A4697F82730134387F8273011
:1028F80003230193FF2300934FF430530122042153
:10290800F868FEF79FF903461A4697F827301343ED
:1029180087F827307B881946B868FEF738F897F8A3
:10292800273018462837BD4680BD80B586B000AF31
:10293800F860B9607A607B800023FB757B887A68D1
:10294800B968F868FFF7C8FE03461A46FB7D1343CB
:10295800FB753B8DBA681344BA8C396A184604F083
:102968003EF87B887A68B968F868FFF73FFF034646
:102978001A46FB7D1343FB75FB7D18461837BD4689
:1029880080BD0000DFF834D0FEF74AF90C480D4945
:102998000D4A002302E0D458C4500433C4188C42B2
:1029A800F9D30A4A0A4C002301E013600432A24218
:1029B800FBD303F0EDFFFDF755FE70470000022042
:1029C80000000020680000205CC6010868000020A4
:1029D80028120020FEE7000080B500AF0E4B1B68F0
:1029E8000D4A43F4007313600B4B1B680A4A43F407
:1029F80080631360084B1B68074A43F480731360B5
:102A0800032000F04FF90F2000F008F8FEF702F855
:102A18000023184680BD00BF003C024080B582B04C
:102A280000AF7860124B1A68124B1B7819464FF4A6
:102A38007A73B3FBF1F3B2FBF3F3184600F067F9CE
:102A48000346002B01D001230EE07B680F2B0AD828
:102A5800002279684FF0FF3000F02FF9064A7B68B2
:102A68001360002300E0012318460837BD4680BDE7
:102A780000000020080000200400002080B400AFFF
:102A8800064B1B781A46064B1B681344044A13600E
:102A980000BFBD465DF8047B704700BF08000020FA
:102AA800D810002080B400AF034B1B681846BD4601
:102AB8005DF8047B704700BFD810002080B584B053
:102AC80000AF7860FFF7EEFFB8607B68FB60FB68DB
:102AD800B3F1FF3F05D00A4B1B781A46FB68134435
:102AE800FB6000BFFFF7DEFF0246BB68D31AFA6837
:102AF8009A42F7D800BF00BF1037BD4680BD00BF5F
:102B08000800002080B485B000AF78607B6803F0CF
:102B18000703FB600C4BDB68BB60BA684FF6FF032A
:102B28001340BB60FB681A02BB68134343F0BF63E2
:102B380043F40033BB60044ABB68D36000BF14375A
:102B4800BD465DF8047B704700ED00E080B400AF3F
:102B5800044BDB681B0A03F007031846BD465DF803
:102B6800047B704700ED00E080B483B000AF0346FB
:102B7800FB7197F90730002B0BDBFB7903F01F0281
:102B8800074997F907305B09012000FA02F241F87A
:102B9800232000BF0C37BD465DF8047B704700BF9B
:102BA80000E100E080B483B000AF03463960FB71F8
:102BB80097F90730002B0ADB3B68DAB20C4997F922
:102BC80007301201D2B20B4483F800230AE03B68B5
:102BD800DAB20849FB7903F00F03043B1201D2B2C1
:102BE8000B441A7600BF0C37BD465DF8047B70476E
:102BF80000E100E000ED00E080B489B000AFF860CB
:102C0800B9607A60FB6803F00703FB61FB69C3F1F5
:102C18000703042B28BF0423BB61FB690433062B7D
:102C280002D9FB69033B00E000237B614FF0FF32D0
:102C3800BB6902FA03F3DA43BB681A407B699A401E
:102C48004FF0FF317B6901FA03F3D9437B680B40EE
:102C5800134318462437BD465DF8047B70470000CF
:102C680080B582B000AF78607B68013BB3F1807FAC
:102C780001D301230FE00A4A7B68013B53600F210F
:102C88004FF0FF30FFF78EFF054B00229A60044B90
:102C980007221A60002318460837BD4680BD00BFCA
:102CA80010E000E080B582B000AF78607868FFF788
:102CB80029FF00BF0837BD4680BD80B586B000AF8C
:102CC8000346B9607A60FB7300237B61FFF73EFF20
:102CD80078617A68B9687869FFF78EFF024697F9D4
:102CE8000F3011461846FFF75DFF00BF1837BD4685
:102CF80080BD80B582B000AF0346FB7197F90730FD
:102D08001846FFF731FF00BF0837BD4680BD80B5C4
:102D180082B000AF78607868FFF7A2FF03461846D4
:102D28000837BD4680BD80B483B000AF78607B684B
:102D380093F83530DBB2022B04D07B6880225A65C9
:102D480001230CE07B68052283F835207B681B682B
:102D58001A687B681B6822F001021A600023184673
:102D68000C37BD465DF8047B704780B483B000AF74
:102D780078607B6893F83530DBB218460C37BD466F
:102D88005DF8047B7047000080B489B000AF7860BC
:102D9800396000237B6100233B610023BB61002372
:102DA800FB6159E10122FB6902FA03F37B613B688D
:102DB8001B687A6913403B613A697B699A4240F023
:102DC80048813B685B6803F00303012B05D03B682F
:102DD8005B6803F00303022B30D17B689B68BB61FF
:102DE800FB695B00032202FA03F3DB43BA69134071
:102DF800BB613B68DA68FB695B0002FA03F3BA69F6
:102E08001343BB617B68BA699A607B685B68BB6186
:102E18000122FB6902FA03F3DB43BA691340BB6181
:102E28003B685B681B0903F00102FB6902FA03F3C4
:102E3800BA691343BB617B68BA695A603B685B68CF
:102E480003F00303032B17D07B68DB68BB61FB69C6
:102E58005B00032202FA03F3DB43BA691340BB6148
:102E68003B689A68FB695B0002FA03F3BA6913438B
:102E7800BB617B68BA69DA603B685B6803F003038F
:102E8800022B23D1FB69DA087B68083253F8223019
:102E9800BB61FB6903F007039B000F2202FA03F3EF
:102EA800DB43BA691340BB613B681A69FB6903F0ED
:102EB80007039B0002FA03F3BA691343BB61FB697A
:102EC800DA087B680832B96943F822107B681B6806
:102ED800BB61FB695B00032202FA03F3DB43BA69B7
:102EE8001340BB613B685B6803F00302FB695B004E
:102EF80002FA03F3BA691343BB617B68BA691A60C3
:102F08003B685B6803F44033002B00F0A280002389
:102F1800FB60574B5B6C564A43F480435364544BF5
:102F28005B6C03F48043FB60FB68524AFB699B08B7
:102F3800023352F82330BB61FB6903F003039B00A3
:102F48000F2202FA03F3DB43BA691340BB617B68C3
:102F5800494A934219D07B68484A934213D07B6808
:102F6800474A93420DD07B68464A934207D07B6814
:102F7800454A934201D1042308E0072306E00323CE
:102F880004E0022302E0012300E00023FA6902F0D2
:102F9800030292009340BA691343BB613549FB6948
:102FA8009B080233BA6941F82320384B9B68BB6100
:102FB8003B69DB43BA691340BB613B685B6803F458
:102FC8008013002B03D0BA693B691343BB612F4AB6
:102FD800BB6993602D4BDB68BB613B69DB43BA6916
:102FE8001340BB613B685B6803F40013002B03D0FC
:102FF800BA693B691343BB61244ABB69D360234B5D
:103008005B68BB613B69DB43BA691340BB613B68E2
:103018005B6803F40033002B03D0BA693B691343A0
:10302800BB611A4ABB695360184B1B68BB613B699B
:10303800DB43BA691340BB613B685B6803F48033C8
:10304800002B03D0BA693B691343BB610F4ABB69C4
:103058001360FB690133FB61FB690F2B7FF6A2AE9E
:1030680000BF00BF2437BD465DF8047B704700BF32
:1030780000380240003801400000024000040240CD
:1030880000080240000C024000100240003C0140D1
:1030980080B483B000AF78600B467B8013467B70AA
:1030A8007B78002B03D07A887B689A6103E07B8861
:1030B8001A047B689A6100BF0C37BD465DF8047B33
:1030C8007047000080B584B000AF78607B68002B43
:1030D80001D101232BE17B6893F83D30DBB2002B53
:1030E80006D17B68002283F83C207868FDF76AFAED
:1030F8007B68242283F83D207B681B681A687B68FC
:103108001B6822F001021A607B681B681A687B68DA
:103118001B6842F400421A607B681B681A687B6867
:103128001B6822F400421A6003F0D2F9F8607B6849
:103138005B68814A934207D8FB68804A934294BFF0
:1031480001230023DBB206E0FB687D4A934294BF6B
:1031580001230023DBB2002B01D00123E7E0FB6849
:10316800784AA2FB03239B0CBB607B681B685B68E7
:1031780023F03F017B681B68BA680A435A607B6882
:103188001B681B6A23F03F017B685B686A4A9342AD
:1031980002D8BB68013309E0BB684FF4967202FBA2
:1031A80003F3694AA2FB03239B0901337A68126877
:1031B8000B4313627B681B68DB6923F44F4222F0E0
:1031C800FF027B685B685C498B4219D8FB68591E13
:1031D8007B685B685B00B1FBF3F3591C40F6FC733A
:1031E8000B40002B0AD0FB68591E7B685B685B00AC
:1031F800B1FBF3F30133C3F30B0351E004234FE0B6
:103208007B689B68002B11D1FB68581E7B68596846
:103218000B465B000B44B0FBF3F30133C3F30B0322
:10322800002B0CBF01230023DBB212E0FB68581E01
:103238007B6859680B469B000B4499000B44B0FB14
:10324800F3F30133C3F30B03002B0CBF012300235B
:10325800DBB2002B01D0012322E07B689B68002BA6
:103268000ED1FB68581E7B6859680B465B000B44FF
:10327800B0FBF3F30133C3F30B0343F400430FE054
:10328800FB68581E7B6859680B469B000B449900E5
:103298000B44B0FBF3F30133C3F30B0343F4404394
:1032A800796809681343CB617B681B681B6823F046
:1032B800C0017B68DA697B681B6A1A437B681B68F4
:1032C8000A431A607B681B689B6823F4034323F056
:1032D800FF037A6811697A68D26811437A681268BC
:1032E8000B4393607B681B68DB6823F0FF017B68F6
:1032F8005A697B689B691A437B681B680A43DA60D2
:103308007B681B681A687B681B6842F001021A60B8
:103318007B6800221A647B68202283F83D207B6842
:1033280000221A637B68002283F83E200023184697
:103338001037BD4680BD00BFA08601007F841E00F7
:10334800FF083D0083DE1B43D34D621080B483B079
:1033580000AF78607B681B685B6903F08003802B93
:1033680003D17B681B6800221A6100BF0C37BD4679
:103378005DF8047B7047000080B588B002AFF86044
:103388007A601A460B467B8113463B81FFF78AFB1E
:103398007861FB6893F83D30DBB2202B40F0E08089
:1033A8007B690093192301227049F86802F09EF99D
:1033B8000346002B01D00223D3E0FB6893F83C308E
:1033C800012B01D10223CCE0FB68012283F83C20C9
:1033D800FB681B681B6803F00103012B07D0FB681F
:1033E8001B681A68FB681B6842F001021A60FB68D8
:1033F8001B681A68FB681B6822F400621A60FB6885
:10340800212283F83D20FB68102283F83E20FB68C8
:1034180000221A64FB687A685A62FB683A895A85FE
:10342800FB685B8D9AB2FB681A85FB68504ADA62C2
:1034380079897B693A6AF86801F0B0FE0346002B87
:1034480001D001238DE000233B61FB681B685B69A9
:103458003B61FB681B689B693B613B6966E07A6975
:10346800396AF86802F05CFA0346002B0DD0FB6855
:103478001B6C042B07D1FB681B681A68FB681B6868
:1034880042F400721A6001236BE0FB685B6A1A78E9
:10349800FB681B681A61FB685B6A5A1CFB685A6206
:1034A800FB685B8D9BB2013B9AB2FB685A85FB684F
:1034B8001B8D013B9AB2FB681A85FB681B685B6928
:1034C80003F00403042B1BD1FB681B8D002B17D0C2
:1034D800FB685B6A1A78FB681B681A61FB685B6AA1
:1034E8005A1CFB685A62FB685B8D9BB2013B9AB21F
:1034F800FB685A85FB681B8D013B9AB2FB681A85ED
:103508007A69396AF86802F053FA0346002B0DD03D
:10351800FB681B6C042B07D1FB681B681A68FB68E7
:103528001B6842F400721A6001231AE0FB681B8DC5
:10353800002B94D1FB681B681A68FB681B6842F46F
:1035480000721A60FB68202283F83D20FB68002285
:1035580083F83E20FB68002283F83C20002300E02B
:10356800022318461837BD4680BD00BF0200100070
:103578000000FFFF80B588B002AFF860084611462A
:103588001A4603467B810B463B811346FB80FFF7B7
:1035980089FA7861FB6893F83D30DBB2202B40F064
:1035A800D9807B690093192301226D49F86802F0DC
:1035B8009DF80346002B01D00223CCE0FB6893F86A
:1035C8003C30012B01D10223C5E0FB68012283F8BE
:1035D8003C20FB681B681B6803F00103012B07D024
:1035E800FB681B681A68FB681B6842F001021A60D6
:1035F800FB681B681A68FB681B6822F400621A6083
:10360800FB68212283F83D20FB68402283F83E2096
:10361800FB6800221A64FB683A6A5A62FB68BA8C33
:103628005A85FB685B8D9AB2FB681A85FB684D4A20
:10363800DA62F8883A8979897B690193BB6A0093D1
:103648000346F86801F02CFE0346002B52D00123F4
:1036580081E07A69B96AF86802F062F90346002BDA
:103668000DD0FB681B6C042B07D1FB681B681A681C
:10367800FB681B6842F400721A6001236BE0FB6868
:103688005B6A1A78FB681B681A61FB685B6A5A1CDC
:10369800FB685A62FB681B8D013B9AB2FB681A856E
:1036A800FB685B8D9BB2013B9AB2FB685A85FB684D
:1036B8001B685B6903F00403042B1BD1FB681B8D9B
:1036C800002B17D0FB685B6A1A78FB681B681A61C5
:1036D800FB685B6A5A1CFB685A62FB681B8D013BDE
:1036E8009AB2FB681A85FB685B8D9BB2013B9AB264
:1036F800FB685A85FB681B8D002BAAD17A69B96AC9
:10370800F86802F055F90346002B0DD0FB681B6CD6
:10371800042B07D1FB681B681A68FB681B6842F416
:1037280000721A60012316E0FB681B681A68FB68C0
:103738001B6842F400721A60FB68202283F83D205F
:10374800FB68002283F83E20FB68002283F83C20B7
:10375800002300E0022318461837BD4680BD00BF8D
:10376800020010000000FFFF80B58CB002AFF860C7
:10377800084611461A4603467B810B463B81134691
:10378800FB80FFF78FF97862FB6893F83D30DBB276
:10379800202B40F014827B6A0093192301227B4975
:1037A800F86801F0A3FF0346002B01D0022307E2CB
:1037B800FB6893F83C30012B01D1022300E2FB683F
:1037C800012283F83C20FB681B681B6803F0010397
:1037D800012B07D0FB681B681A68FB681B6842F05E
:1037E80001021A60FB681B681A68FB681B6822F4F0
:1037F80000621A60FB68222283F83D20FB684022A1
:1038080083F83E20FB6800221A64FB683A6B5A6210
:10381800FB68BA8E5A85FB685B8D9AB2FB681A857D
:10382800FB685B4ADA62F8883A8979897B6A01938E
:10383800BB6B00930346F86801F0C8FD0346002BF4
:1038480001D00123BCE1FB681B8D002B13D10023A1
:103858003B62FB681B685B693B62FB681B689B6992
:103868003B623B6AFB681B681A68FB681B6842F48A
:1038780000721A6090E1FB681B8D012B1BD1FB685D
:103888001B681A68FB681B6822F480621A600023B0
:10389800FB61FB681B685B69FB61FB681B689B69D4
:1038A800FB61FB69FB681B681A68FB681B6842F4CC
:1038B80000721A6070E1FB681B8D022B1BD1FB683C
:1038C8001B681A68FB681B6822F480621A60FB6830
:1038D8001B681A68FB681B6842F400621A600023C0
:1038E800BB61FB681B685B69BB61FB681B689B6904
:1038F800BB61BB6950E100237B61FB681B685B69A6
:103908007B61FB681B689B697B617B6944E1FB68A1
:103918001B8D032B00F2F180FB681B8D012B23D13B
:103928007A6AB96BF86802F0BDF80346002B01D03B
:10393800012345E1FB681B681A69FB685B6AD2B220
:103948001A70FB685B6A5A1CFB685A62FB681B8D1D
:10395800013B9AB2FB681A85FB685B8D9BB2013B01
:103968009AB2FB685A8517E1FB681B8D022B4ED172
:103978007B6A0093BB6B00220649F86801F0B6FE2B
:103988000346002B08D001231AE100BF02001000F3
:103998000000FFFF04000100FB681B681A68FB6851
:1039A8001B6842F400721A60FB681B681A69FB689E
:1039B8005B6AD2B21A70FB685B6A5A1CFB685A626F
:1039C800FB681B8D013B9AB2FB681A85FB685B8D0F
:1039D8009BB2013B9AB2FB685A85FB681B681A695F
:1039E800FB685B6AD2B21A70FB685B6A5A1CFB6898
:1039F8005A62FB681B8D013B9AB2FB681A85FB680B
:103A08005B8D9BB2013B9AB2FB685A85C4E07B6A26
:103A18000093BB6B00226C49F86801F067FE03460F
:103A2800002B01D00123CBE0FB681B681A68FB68F8
:103A38001B6822F480621A60FB681B681A69FB68BD
:103A48005B6AD2B21A70FB685B6A5A1CFB685A62DE
:103A5800FB681B8D013B9AB2FB681A85FB685B8D7E
:103A68009BB2013B9AB2FB685A857B6A0093BB6B99
:103A780000225549F86801F039FE0346002B01D0B1
:103A880001239DE0FB681B681A68FB681B6842F409
:103A980000721A60FB681B681A69FB685B6AD2B21D
:103AA8001A70FB685B6A5A1CFB685A62FB681B8DBC
:103AB800013B9AB2FB681A85FB685B8D9BB2013BA0
:103AC8009AB2FB685A85FB681B681A69FB685B6ACF
:103AD800D2B21A70FB685B6A5A1CFB685A62FB68B0
:103AE8001B8D013B9AB2FB681A85FB685B8D9BB204
:103AF800013B9AB2FB685A854EE07A6AB96BF8685E
:103B080001F0D0FF0346002B01D0012358E0FB68E9
:103B18001B681A69FB685B6AD2B21A70FB685B6A39
:103B28005A1CFB685A62FB681B8D013B9AB2FB6802
:103B38001A85FB685B8D9BB2013B9AB2FB685A857C
:103B4800FB681B685B6903F00403042B24D1FB6842
:103B58001B8D032B07D1FB681B681A68FB681B6861
:103B680022F480621A60FB681B681A69FB685B6A4A
:103B7800D2B21A70FB685B6A5A1CFB685A62FB680F
:103B88001B8D013B9AB2FB681A85FB685B8D9BB263
:103B9800013B9AB2FB685A85FB681B8D002B7FF4AA
:103BA800B6AEFB68202283F83D20FB68002283F82C
:103BB8003E20FB68002283F83C20002300E002231B
:103BC80018462837BD4680BD0400010080B588B07E
:103BD80000AF78600023BB617B681B685B687B6112
:103BE8007B68DB6A3B617B6893F83E30FB737B68DC
:103BF80093F83D30BB73FB7B102B03D0FB7B402B32
:103C080040F0C1807B681B689B69BB617B681B684F
:103C18005B69FB61FB6903F00103002B0DD13B6974
:103C2800B3F52A0F03D03B69B3F12A4F01D1012321
:103C380000E00023012B00F03281FB6903F001034F
:103C4800002B0CD07B695B0A03F00103002B06D024
:103C5800786801F0B3FF786800F0F4FC92E0FB6943
:103C6800DB0803F00103002B09D07B695B0A03F032
:103C78000103002B03D0786800F06AFD82E0FB693D
:103C88005B0803F00103002B09D07B695B0A03F092
:103C98000103002B03D0786800F084FD72E0BB6953
:103CA8009B0803F00103002B3BD07B681B685B6813
:103CB80003F40063B3F5006F00F0F380FB69DB09E0
:103CC80003F00103002B0FD07B699B0A03F001036B
:103CD800002B09D0FB699B0803F00103002B03D1DB
:103CE800786800F04CF94DE0FB699B0803F001038C
:103CF800002B00F0D6807B695B0A03F00103002BE0
:103D080000F0CF80BB7B212B03D1786800F0D3F97A
:103D1800C7E0FB7B402B40F0C480786800F041FA94
:103D2800BFE07B681B685B6803F40063B3F5006F52
:103D380000F0B780FB699B0903F00103002B0FD04B
:103D48007B699B0A03F00103002B09D0FB699B08E0
:103D580003F00103002B03D1786800F0BAFA11E0F0
:103D6800FB699B0803F00103002B00F09A807B6934
:103D78005B0A03F00103002B00F09380786800F0E1
:103D880070FB8EE08DE07B681B6C002B04D07B6899
:103D98001B685B69FB6107E07B681B689B69BB610B
:103DA8007B681B685B69FB61FB695B0803F00103C7
:103DB800002B12D07B695B0A03F00103002B0CD0A7
:103DC8007B681B6C002B03D07B681B689B69BB61FD
:103DD800B969786800F035FF66E0FB691B0903F0F4
:103DE8000103002B09D07B695B0A03F00103002B58
:103DF80003D0786800F070FF56E0BB7B212B02D01F
:103E0800BB7B292B25D1FB69DB0903F00103002BC0
:103E18000FD07B699B0A03F00103002B09D0FB69D3
:103E28009B0803F00103002B03D1786800F04BFED8
:103E380039E0FB699B0803F00103002B33D07B6951
:103E48005B0A03F00103002B2DD0786800F078FEA0
:103E580029E0FB699B0903F00103002B0FD07B6964
:103E68009B0A03F00103002B09D0FB699B0803F0B0
:103E78000103002B03D1786800F083FE14E0FB698E
:103E88009B0803F00103002B0ED07B695B0A03F04B
:103E98000103002B08D0786800F0B1FE04E000BFF1
:103EA80002E000BF00E000BF2037BD4680BD80B4FF
:103EB80083B000AF786000BF0C37BD465DF8047B67
:103EC800704780B483B000AF786000BF0C37BD4640
:103ED8005DF8047B704780B483B000AF786000BFA2
:103EE8000C37BD465DF8047B704780B483B000AFE3
:103EF800786000BF0C37BD465DF8047B704780B41E
:103F080083B000AF78600B46FB7013463B8000BF60
:103F18000C37BD465DF8047B704780B483B000AFB2
:103F2800786000BF0C37BD465DF8047B704780B4ED
:103F380083B000AF786000BF0C37BD465DF8047BE6
:103F4800704780B483B000AF786000BF0C37BD46BF
:103F58005DF8047B704780B483B000AF786000BF21
:103F68000C37BD465DF8047B704780B483B000AF62
:103F7800786000BF0C37BD465DF8047B704780B59C
:103F880084B000AF78607B6893F83D30FB737B6842
:103F980093F83E30BB737B68DB6ABB607B681B8D24
:103FA800002B50D1FB7B212B4DD1BB68082B1DD09A
:103FB800BB68202B1AD0BB6813F5803F16D07B68EE
:103FC8001B685A687B681B6822F4E0625A607B6849
:103FD80011221A637B68002283F83E207B68202226
:103FE80083F83D207868FFF762FF60E07B681B6814
:103FF8005A687B681B6822F4E0625A607B681B6819
:104008001A687B681B6842F400721A607B68002299
:104018001A637B68202283F83D207B6893F83E3042
:10402800DBB2402B07D17B68002283F83E207868FA
:10403800FFF77DFF3BE07B68002283F83E2078682D
:10404800FFF735FF33E0FB7B212B05D0BB7B402BF3
:104058002DD1FB7B222B2AD17B685B8D9BB2002B59
:1040680008D17B681B685A687B681B6822F48062E9
:104078005A601CE07B6893F83E30DBB2402B03D1DA
:10408800786800F08EF812E07B685B6A1A787B68C3
:104098001B681A617B685B6A5A1C7B685A627B687A
:1040A8005B8D9BB2013B9AB27B685A85FFE700BFE4
:1040B8001037BD4680BD80B584B000AF78607B689E
:1040C800DB6AFB607B6893F83D30DBB2212B64D15F
:1040D8007B685B8D9BB2002B12D07B685B6A1A7879
:1040E8007B681B681A617B685B6A5A1C7B685A622A
:1040F8007B685B8D9BB2013B9AB27B685A854CE02A
:10410800FB68082B1DD0FB68202B1AD0FB6813F521
:10411800803F16D07B681B685A687B681B6822F44E
:10412800E0625A607B6811221A637B68002283F878
:104138003E207B68202283F83D207868FFF7B7FE91
:104148002BE07B681B685A687B681B6822F4E06276
:104158005A607B681B681A687B681B6842F40072A7
:104168001A607B6800221A637B68202283F83D204E
:104178007B6893F83E30DBB2402B07D17B68002286
:1041880083F83E207868FFF7D2FE06E07B680022BD
:1041980083F83E207868FFF78AFE00BF1037BD46D7
:1041A80080BD80B584B000AF78607B6893F83D30FF
:1041B800FB737B681B6D002B1DD17B68DB6C012BAF
:1041C8000BD17B689B6CDAB27B681B681A617B68D1
:1041D8001B6D9A1C7B681A6577E07B689B6C9BB2A9
:1041E8001B12DAB27B681B681A617B681B6D5A1C4C
:1041F8007B681A6569E07B681B6D012B0BD17B68B6
:104208009B6CDAB27B681B681A617B681B6D5A1C51
:104218007B681A6559E07B681B6D022B52D1FB7BCA
:10422800222B0DD17B681B681A687B681B6842F4D7
:1042380080721A607B681B6D5A1C7B681A6544E0A3
:104248007B685B8D9BB2002B15D0FB7B212B12D199
:104258007B685B6A1A787B681B681A617B685B6A93
:104268005A1C7B685A627B685B8D9BB2013B9AB291
:104278007B685A8529E07B685B8D9BB2002B24D133
:10428800FB7B212B21D17B681B685A687B681B68E4
:1042980022F4E0625A607B681B681A687B681B68B6
:1042A80042F400721A607B6800221A637B6820223D
:1042B80083F83D207B68002283F83E207868FFF76A
:1042C80036FE02E07868FFF741F800BF1037BD46B8
:1042D80080BD80B584B000AF78607B6893F83D30CE
:1042E800DBB2222B40F0B9807B68DB6AFB607B681D
:1042F8005B8D9BB2BB60BB68032B21D97B681B68B5
:104308001A697B685B6AD2B21A707B685B6A5A1C4E
:104318007B685A627B685B8D9BB2013B9AB27B6873
:104328005A857B685B8D9BB2032B40F096807B6837
:104338001B685A687B681B6822F480625A608CE0AC
:104348007B68DB6A022B7FD0BB68012B02D0BB687D
:10435800002B79D1786801F073FB0346002B4CD110
:104368007B681B681A687B681B6822F480621A6085
:104378007B681B685A687B681B6822F4E0625A6095
:104388007B681B681A697B685B6AD2B21A707B68A3
:104398005B6A5A1C7B685A627B685B8D9BB2013BE7
:1043A8009AB27B685A857B68202283F83D207B6817
:1043B80093F83E30DBB2402B0AD17B68002283F8A9
:1043C8003E207B6800221A637868FFF7BAFD44E054
:1043D8007B68002283F83E20FB68082B02D0FB682C
:1043E800202B03D17B6800221A6302E07B6812222B
:1043F8001A637868FFF765FD2FE07B681B685A68C9
:104408007B681B6822F4E0625A607B681B681A6943
:104418007B685B6AD2B21A707B685B6A5A1C7B68DD
:104428005A627B685B8D9BB2013B9AB27B685A8566
:104438007B68202283F83D207B68002283F83E2099
:104448007868FFF788FD08E07B681B685A687B6816
:104458001B6822F480625A60FFE700BF1037BD4630
:1044680080BD80B584B000AF78607B68DB6AFB6094
:104478007B685B8D9BB2042B1BD17B681B685A68D9
:104488007B681B6822F480625A607B681B681A6923
:104498007B685B6AD2B21A707B685B6A5A1C7B685D
:1044A8005A627B685B8D9BB2013B9AB27B685A85E6
:1044B800C4E07B685B8D9BB2032B29D17B681B68AA
:1044C8005A687B681B6822F480625A60FB68042B78
:1044D8000AD0FB68022B07D07B681B681A687B68C8
:1044E8001B6822F480621A607B681B681A697B6803
:1044F8005B6AD2B21A707B685B6A5A1C7B685A6224
:104508007B685B8D9BB2013B9AB27B685A8595E0CC
:104518007B685B8D9BB2022B7DD1FB68012B02D09F
:10452800FB68102B08D17B681B681A687B681B68BE
:1045380022F480621A6016E0FB68042B02D0FB6844
:10454800022B08D17B681B681A687B681B6842F4D9
:1045580080621A6007E07B681B681A687B681B68C2
:1045680042F400721A607B681B681A697B685B6A90
:10457800D2B21A707B685B6A5A1C7B685A627B6885
:104588005B8D9BB2013B9AB27B685A857B681B683E
:104598001A697B685B6AD2B21A707B685B6A5A1CBC
:1045A8007B685A627B685B8D9BB2013B9AB27B68E1
:1045B8005A857B681B685A687B681B6822F44072BE
:1045C8005A607B68202283F83D207B6893F83E3050
:1045D800DBB2402B0AD17B68002283F83E207B683F
:1045E80000221A637868FFF7ACFC27E07B6800229A
:1045F80083F83E20FB68082B02D0FB68202B03D1F0
:104608007B6800221A6302E07B6812221A637868CA
:10461800FFF757FC12E07B681B681A697B685B6AC6
:10462800D2B21A707B685B6A5A1C7B685A627B68D4
:104638005B8D9BB2013B9AB27B685A8500BF1037ED
:10464800BD4680BD80B483B000AF78607B6893F8C6
:104658003E30DBB2402B17D17B681B6D002B09D194
:104668007B685B6CDBB21A467B681B6802F0FE0253
:104678001A6167E07B685B6CDBB243F00103DAB276
:104688007B681B681A615DE07B681B69B3F5804F26
:1046980033D17B6893F83D30DBB2212B09D17B689D
:1046A8005B6CDBB21A467B681B6802F0FE021A617B
:1046B80008E07B685B6CDBB243F00103DAB27B682D
:1046C8001B681A617B685B6B002B04D07B685B6B93
:1046D800DB6B002B08D17B689B6B002B32D07B688F
:1046E8009B6BDB6B002B2DD07B681B685A687B6843
:1046F8001B6842F400625A6024E07B681B6D002B43
:104708000ED17B685B6C9BB2DB11DBB203F0060356
:10471800DBB263F00F03DAB27B681B681A6111E041
:104728007B681B6D012B0DD17B685B6C9BB2DB1129
:10473800DBB203F00603DBB263F00E03DAB27B6888
:104748001B681A6100BF0C37BD465DF8047B7047D3
:1047580080B483B000AF78607B685B6CDAB27B684A
:104768001B681A617B685B6B002B04D07B685B6BF2
:10477800DB6B002B08D17B689B6B002B0CD07B6814
:104788009B6BDB6B002B07D07B681B685A687B68C8
:104798001B6842F400625A6000BF0C37BD465DF8E2
:1047A800047B704780B491B000AF78607B6893F861
:1047B8003E3087F83F307B68DB6ABB637B681B6BE6
:1047C8007B637B6893F83D30DBB2222B40F0698134
:1047D8007B681B6D002B0FD197F83F30402B0BD116
:1047E80000233B637B681B685B693B637B681B68D2
:1047F8009B693B633B6B60E17B681B6D002B1DD1A4
:104808007B681B69B3F5404F18D10023FB627B68B6
:104818001B685B69FB627B681B689B69FB62FB6AC0
:104828007B681B681A687B681B6842F480721A6090
:104838007B681B6D5A1C7B681A653EE17B685B8D43
:104848009BB2002B13D10023BB627B681B685B699A
:10485800BB627B681B689B69BB62BB6A7B681B6821
:104868001A687B681B6842F400721A6015E17B685D
:104878005B8D9BB2012B40F08A80BB6B13F5803FA8
:1048880037D17B681B681A687B681B6822F48062D2
:104898001A607B681B685B6803F40063B3F5006FFC
:1048A80013D17B681B681A687B681B6822F48062D6
:1048B8001A6000237B627B681B685B697B627B688C
:1048C8001B689B697B627B6AE7E000233B627B682D
:1048D8001B685B693B627B681B689B693B623B6A40
:1048E8007B681B681A687B681B6842F400721A6050
:1048F800D3E0BB6B082B2ED0BB6B202B2BD07B6B54
:10490800122B02D1BB6B012B25D1BB6B042B0ED014
:10491800BB6B022B0BD0BB6B102B08D07B681B68C2
:104928001A687B681B6822F480621A6007E07B685B
:104938001B681A687B681B6842F480621A6000234F
:10494800FB617B681B685B69FB617B681B689B6913
:10495800FB61FB69A1E07B681B681A687B681B68C0
:1049680022F480621A600023BB617B681B685B6964
:10497800BB617B681B689B69BB61BB697B681B6803
:104988001A687B681B6842F400721A6085E07B68CD
:104998005B8D9BB2022B4DD1BB6B042B16D0BB6B2E
:1049A800022B13D0BB6B102B10D07B681B681A68C6
:1049B8007B681B6822F480621A607B681B681A682F
:1049C8007B681B6842F400621A6007E07B681B681A
:1049D8001A687B681B6842F480621A607B681B68EF
:1049E8005B6803F40063B3F5006F17D1BB6B13F575
:1049F800803F0BD0BB6B012B08D0BB6B082B05D0BD
:104A0800BB6B102B02D0BB6B202B07D17B681B68BC
:104A18005A687B681B6842F480525A6000237B61A5
:104A28007B681B685B697B617B681B689B697B6132
:104A38007B6932E07B681B681A687B681B6842F4F4
:104A480080621A607B681B685B6803F40063B3F5D7
:104A5800006F17D1BB6B13F5803F0BD0BB6B012BDD
:104A680008D0BB6B082B05D0BB6B102B02D0BB6BDF
:104A7800202B07D17B681B685A687B681B6842F447
:104A880080525A6000233B617B681B685B693B610D
:104A98007B681B689B693B613B697B6800221A65E0
:104AA8000BE00023FB607B681B685B69FB607B682D
:104AB8001B689B69FB60FB68FFE700BF4437BD4686
:104AC8005DF8047B704780B584B000AF78607B6880
:104AD80093F83D30FB737B685B8D9BB2002B2BD02A
:104AE8007B685B6A1A787B681B681A617B685B6AFB
:104AF8005A1C7B685A627B685B8D9BB2013B9AB2F9
:104B08007B685A857B685B8D9BB2002B14D1FB7B3D
:104B1800292B11D17B681B685A687B681B6822F4B3
:104B280080625A607B6821221A637B68282283F896
:104B38003D207868FFF7CFF900BF1037BD4680BD2C
:104B480080B483B000AF78607B685B8D9BB2002B2C
:104B580011D07B685B6A1A787B681B681A617B686E
:104B68005B6A5A1C7B685A627B685B8D9BB2013B0F
:104B78009AB27B685A8500BF0C37BD465DF8047B46
:104B8800704780B584B000AF78607B6893F83D309B
:104B9800FB737B685B8D9BB2002B2CD07B681B68FA
:104BA8001A697B685B6AD2B21A707B685B6A5A1CA6
:104BB8007B685A627B685B8D9BB2013B9AB27B68CB
:104BC8005A857B685B8D9BB2002B14D1FB7B2A2B0B
:104BD80011D17B681B685A687B681B6822F4806265
:104BE8005A607B6822221A637B68282283F83D205A
:104BF8007868FFF77AF900BF1037BD4680BD80B4EA
:104C080083B000AF78607B685B8D9BB2002B12D0BD
:104C18007B681B681A697B685B6AD2B21A707B680A
:104C28005B6A5A1C7B685A627B685B8D9BB2013B4E
:104C38009AB27B685A8500BF0C37BD465DF8047B85
:104C4800704780B584B000AF786039600023FB738B
:104C58007B6893F83D30DBB203F02803282B27D17B
:104C68007B681B685A687B681B6822F480625A60FC
:104C78003B689B0803F00103002B01D10123FB7360
:104C88003B68DB0903F00103002B03D17B68DB6879
:104C9800BB8102E07B689B69BB817B68002283F84B
:104CA8003C20BA89FB7B19467868FFF728F90EE0A3
:104CB8000023BB607B681B685B69BB607B681B6803
:104CC8009B69BB60BB687B68002283F83C2000BFFF
:104CD8001037BD4680BD000080B584B000AF786055
:104CE8007B6893F83D30FB737B681B685A687B6868
:104CF8001B6822F4E0625A600023BB607B681B6873
:104D08005B69BB607B681B681A687B681B6842F03C
:104D180001021A60BB687B681B681A687B681B689D
:104D280022F480621A607B681B685B6803F4006386
:104D3800B3F5006F72D1FB7B222B02D0FB7B2A2BB1
:104D480035D17B689B6B1B685B689AB27B685A8518
:104D58007B685B8D9BB2002B05D07B681B6C43F096
:104D680004027B681A647B681B685A687B681B6846
:104D780022F400625A607B689B6B1846FDF7F5FFCA
:104D88000346012B49D07B689B6B694A1A657B688F
:104D98009B6B1846FDF7C7FF0346002B3DD07B6889
:104DA8009B6B1B6D7A68926B1046984735E07B6861
:104DB8005B6B1B685B689AB27B685A857B685B8D06
:104DC8009BB2002B05D07B681B6C43F004027B6808
:104DD8001A647B681B685A687B681B6822F4006247
:104DE8005A607B685B6B1846FDF7BFFF0346012BD3
:104DF80014D07B685B6B4E4A1A657B685B6B184600
:104E0800FDF791FF0346002B08D07B685B6B1B6D99
:104E18007A68526B1046984700E000BF7B685B8D4C
:104E28009BB2002B3ED07B681B685B6903F00403D0
:104E3800042B12D17B681B681A697B685B6AD2B243
:104E48001A707B685B6A5A1C7B685A627B685B8D48
:104E58009BB2013B9AB27B685A857B681B685B6989
:104E680003F04003402B12D17B681B681A697B68EA
:104E78005B6AD2B21A707B685B6A5A1C7B685A629A
:104E88007B685B8D9BB2013B9AB27B685A857B68D5
:104E98005B8D9BB2002B05D07B681B6C43F0040232
:104EA8007B681A647B681B6C002B03D0786800F061
:104EB80043F839E0FB7B2A2B09D17B6800221A636F
:104EC8007B68282283F83D207868FFF70EF87B6816
:104ED80093F83D30DBB2282B11D17B68154ADA6292
:104EE8007B6800221A637B68202283F83D207B6858
:104EF800002283F83E207868FFF70FF814E07B68FB
:104F08001B6B222B02D0FB7B222B0DD17B6800224E
:104F18001A637B68202283F83D207B68002283F88F
:104F28003E207868FEF7E1FF00BF1037BD4680BD20
:104F3800A55500080000FFFF80B584B000AF786079
:104F48007B6893F83D30FB737B6893F83E30BB7306
:104F5800BB7B102B02D0BB7B402B0AD1FB7B222BC7
:104F680007D17B681B681A687B681B6822F400629B
:104F78001A60FB7B03F02803282B07D17B680022EB
:104F88001A637B68282283F83D2015E07B681B683C
:104F98005B6803F40063B3F5006F0AD0FB7B602BFA
:104FA80007D07B68202283F83D207B68002283F8A5
:104FB8003E207B6800221A637B681B685B6803F4E9
:104FC8000063B3F5006F62D17B681B685A687B6821
:104FD8001B6822F400625A607B685B6B93F835307B
:104FE800DBB2012B20D07B685B6B6A4A1A657B6851
:104FF8005B6B1846FDF797FE0346002B00F089808F
:105008007B681B681A687B681B6822F001021A60BB
:105018007B68202283F83D207B685B6B1B6D7A6878
:10502800526B1046984774E07B689B6B594A1A6527
:105038007B689B6B1846FDF776FE0346002B68D00D
:105048007B681B685B6903F04003402B0BD17B68CE
:105058001B681A697B685B6AD2B21A707B685B6AE4
:105068005A1C7B685A627B681B681A687B681B68D5
:1050780022F001021A607B68202283F83D207B68B9
:105088009B6B1B6D7A68926B1046984741E07B6872
:1050980093F83D30DBB2602B25D17B68202283F862
:1050A8003D207B6800221A647B681B685B6903F0FB
:1050B8004003402B0BD17B681B681A697B685B6ACD
:1050C800D2B21A707B685B6A5A1C7B685A627B682A
:1050D8001B681A687B681B6822F001021A607868EE
:1050E800FEF743FF15E07B681B685B6903F040032C
:1050F800402B0BD17B681B681A697B685B6AD2B24C
:105108001A707B685B6A5A1C7B685A627868FEF77B
:1051180022FF7B681B6CBB60BB6803F00103002B9C
:105128000ED1BB6803F00203002B09D1BB6803F062
:105138000403002B04D1BB6803F00803002B07D03D
:105148007B681B685A687B681B6822F4E0625A60B7
:105158007B6893F83D30FB737B681B6C03F004039A
:10516800042B13D1FB7B282B10D17B680A4ADA6207
:105178007B6800221A637B68202283F83D207B68C5
:10518800002283F83E207868FEF7C7FE00BF10377C
:10519800BD4680BDA55500080000FFFF80B588B05A
:1051A80002AFF8607A603B600B467B81FB68DB6A84
:1051B8007B617B69082B06D07B69012B03D07B6957
:1051C80013F5803F08D1FB681B681A68FB681B68E9
:1051D80042F480721A600BE0FB681B6B122B07D13C
:1051E800FB681B681A68FB681B6842F480721A60C7
:1051F8003B6800937B6800224FF00111F86800F0CB
:1052080075FA0346002B0DD0FB681B681B6803F476
:105218008073B3F5807F03D1FB684FF400721A6482
:10522800032335E0FB681B69B3F5804F08D17B8900
:10523800DBB21A46FB681B6802F0FE021A611BE02B
:105248007B89DB11DBB203F00603DBB263F00F03EB
:10525800DAB2FB681B681A613B687A680E49F8681D
:1052680000F0BEFA0346002B01D0012310E07B8931
:10527800DAB2FB681B681A613B687A680749F86804
:1052880000F0AEFA0346002B01D0012300E0002312
:1052980018461837BD4680BD08000100020001000D
:1052A80080B588B002AFF860084611461A46034632
:1052B8007B810B463B811346FB80FB681B681A68A1
:1052C800FB681B6842F480721A607B6A00933B6A31
:1052D80000224FF00111F86800F008FA0346002B8D
:1052E8000DD0FB681B681B6803F48073B3F5807FDF
:1052F80003D1FB684FF400721A6403235FE07B89D3
:10530800DBB21A46FB681B6802F0FE021A617B6A70
:105318003A6A2D49F86800F063FA0346002B01D079
:1053280001234CE000237B61FB681B685B697B61A0
:10533800FB681B689B697B617B697A6A396AF868D4
:1053480000F0EEFA0346002B0DD0FB681B6C042B13
:1053580007D1FB681B681A68FB681B6842F4007277
:105368001A6001232BE0FB88012B05D13B89DAB2B7
:10537800FB681B681A6121E03B891B0A9BB2DAB201
:10538800FB681B681A617A6A396AF86800F0C8FA1B
:105398000346002B0DD0FB681B6C042B07D1FB6860
:1053A8001B681A68FB681B6842F400721A600123C4
:1053B80005E03B89DAB2FB681B681A6100231846CE
:1053C8001837BD4680BD00BF0200010080B588B017
:1053D80002AFF860084611461A4603467B810B4621
:1053E8003B811346FB80FB681B681A68FB681B68D7
:1053F80042F480621A60FB681B681A68FB681B68C5
:1054080042F480721A607B6A00933B6A00224FF074
:105418000111F86800F06AF90346002B0DD0FB680B
:105428001B681B6803F48073B3F5807F03D1FB68A6
:105438004FF400721A640323AAE07B89DBB21A4690
:10544800FB681B6802F0FE021A617B6A3A6A5249DD
:10545800F86800F0C5F90346002B01D0012397E056
:1054680000237B61FB681B685B697B61FB681B68C9
:105478009B697B617B697A6A396AF86800F050FA3F
:105488000346002B0DD0FB681B6C042B07D1FB686F
:105498001B681A68FB681B6842F400721A600123D3
:1054A80076E0FB88012B05D13B89DAB2FB681B68E3
:1054B8001A6121E03B891B0A9BB2DAB2FB681B68C0
:1054C8001A617A6A396AF86800F02AFA0346002BEA
:1054D8000DD0FB681B6C042B07D1FB681B681A688E
:1054E800FB681B6842F400721A60012350E03B8994
:1054F800DAB2FB681B681A617A6A396AF86800F0E0
:105508000FFA0346002B0DD0FB681B6C042B07D148
:10551800FB681B681A68FB681B6842F400721A6013
:10552800012335E0FB681B681A68FB681B6842F4B6
:1055380080721A607B6A00933B6A00224FF0011167
:10554800F86800F0D3F80346002B0DD0FB681B6801
:105558001B6803F48073B3F5807F03D1FB684FF4B5
:1055680000721A64032313E07B89DBB243F0010362
:10557800DAB2FB681B681A617B6A3A6A0649F868FE
:1055880000F02EF90346002B01D0012300E0002390
:1055980018461837BD4680BD0200010080B586B0A8
:1055A80000AF78600023FB607B689B6B7B617B6945
:1055B80093F83D30FB744B4B1B68DB084A4AA2FB4F
:1055C80003231A0A13469B001344DA00D31AFB601C
:1055D800FB68002B06D17B691B6C43F020027B69BA
:1055E8001A640AE0FB68013BFB607B691B681B6867
:1055F80003F40073B3F5007FEAD07B695B6B002B83
:1056080003D07B695B6B0022DA637B699B6B002BA1
:1056180003D07B699B6B0022DA637B691B681A687D
:105628007B691B6822F480621A607B6900225A85B4
:105638007B695B6B002B03D07B695B6B00221A656F
:105648007B699B6B002B03D07B699B6B00221A65DF
:105658007B691B681A687B691B6822F001021A6063
:105668007B6993F83D30DBB2602B0ED17B69202239
:1056780083F83D207B69002283F83E207B69002265
:105688001A647869FEF771FC27E0FB7C03F02803B5
:10569800282B17D17B691B681A687B691B6842F045
:1056A80001021A607B691B681A687B691B6842F4EF
:1056B80080621A607B6900221A637B69282283F85A
:1056C8003D2007E07B69202283F83D207B6900228A
:1056D80083F83E207869FEF73EFC00BF1837BD46C8
:1056E80080BD00BF0000002089B5F81480B584B0E3
:1056F80000AFF860B9603B601346FB7148E03B6857
:10570800B3F1FF3F44D0FDF7CDF90246BB69D31A88
:105718003A689A4202D33B68002B39D1BB681B0C0C
:10572800DBB2012B0DD1FB681B685B69DA43BB68F0
:1057380013409BB2002B0CBF01230023DBB21A4697
:105748000CE0FB681B689B69DA43BB6813409BB29B
:10575800002B0CBF01230023DBB21A46FB799A42C7
:1057680016D1FB6800221A63FB68202283F83D20CB
:10577800FB68002283F83E20FB681B6C43F0200284
:10578800FB681A64FB68002283F83C20012323E0AD
:10579800BB681B0CDBB2012B0DD1FB681B685B6976
:1057A800DA43BB6813409BB2002B0CBF01230023D4
:1057B800DBB21A460CE0FB681B689B69DA43BB68DE
:1057C80013409BB2002B0CBF01230023DBB21A4607
:1057D800FB799A4293D0002318461037BD4680BD06
:1057E80080B584B000AFF860B9607A603B6071E062
:1057F800FB681B685B6903F48063B3F5806F23D192
:10580800FB681B681A68FB681B6842F400721A6020
:10581800FB681B686FF480625A61FB6800221A6398
:10582800FB68202283F83D20FB68002283F83E2095
:10583800FB681B6C43F00402FB681A64FB680022D7
:1058480083F83C20012367E07B68B3F1FF3F41D038
:10585800FDF728F902463B68D31A7A689A4202D3C0
:105868007B68002B36D1BB681B0CDBB2012B0CD13B
:10587800FB681B685B69DA43BB6813409BB2002B6B
:1058880014BF01230023DBB20BE0FB681B689B6994
:10589800DA43BB6813409BB2002B14BF01230023DB
:1058A800DBB2002B16D0FB6800221A63FB682022AB
:1058B80083F83D20FB68002283F83E20FB681B6CC0
:1058C80043F02002FB681A64FB68002283F83C203E
:1058D800012321E0BB681B0CDBB2012B0CD1FB6858
:1058E8001B685B69DA43BB6813409BB2002B14BF8B
:1058F80001230023DBB20BE0FB681B689B69DA43DA
:10590800BB6813409BB2002B14BF01230023DBB2FA
:10591800002B7FF46DAF002318461037BD4680BDBD
:1059280080B584B000AFF860B9607A6034E0F86898
:1059380000F015F90346002B01D0012334E0BB68C1
:10594800B3F1FF3F28D0FDF7ADF802467B68D31AC4
:10595800BA689A4202D3BB68002B1DD1FB681B684A
:105968005B6903F08003802B16D0FB6800221A6362
:10597800FB68202283F83D20FB68002283F83E2044
:10598800FB681B6C43F02002FB681A64FB6800226A
:1059980083F83C20012307E0FB681B685B6903F080
:1059A8008003802BC3D1002318461037BD4680BD25
:1059B80080B584B000AFF860B9607A6034E0F86808
:1059C80000F0CDF80346002B01D0012334E0BB687A
:1059D800B3F1FF3F28D0FDF765F802467B68D31A7C
:1059E800BA689A4202D3BB68002B1DD1FB681B68BA
:1059F8005B6903F00403042B16D0FB6800221A63CA
:105A0800FB68202283F83D20FB68002283F83E20B3
:105A1800FB681B6C43F02002FB681A64FB680022D9
:105A280083F83C20012307E0FB681B685B6903F0EF
:105A38000403042BC3D1002318461037BD4680BD8C
:105A480080B485B000AF78600023FB60134B1B68FF
:105A5800DB08134AA2FB03231A0A13469B001344CC
:105A6800FB60FB68013BFB60FB68002B07D17B6890
:105A78001B6C43F020027B681A64012308E07B68F2
:105A88001B681B6803F40073B3F5007FE9D000239B
:105A980018461437BD465DF8047B704700000020A7
:105AA80089B5F81480B584B000AFF860B9607A6041
:105AB80049E0FB681B685B6903F01003102B19D1E0
:105AC800FB681B686FF010025A61FB6800221A63BA
